:1000000010000000005000004D4547340100000082
:10001000001800201D030000DD020000E1020000C6
:10002000E5020000E9020000ED020000000000000F
:10003000000000000000000000000000F1020000CD
:10004000F502000000000000F9020000FD020000BF
:10005000D50000009D01000021010000C10000004A
:10006000D90100000102000019030000190300007B
:100070001903000019030000190300001903000010
:100080001903000019030000190300001903000000
:1000900019030000190300001903000019030000F0
:1000A00019030000190300001903000019030000E0
:1000B00019030000190300001903000019030000D0
:1000C00019030000190300001903000019030000C0
:1000D000034A002313708022D20513707047C04674
:1000E0000000002000B50F4A002353708023DB0579
:1000F000D86B0D490140D963D86B0C490140D963D5
:10010000917800290CD05168DA6B0902120E090AA5
:1001100012060A43DA63D96B802252040A43DA6377
:1001200000BDC04600000020FFFFFFFEFFFFFFEF05
:1001300010B5A022D20594686407640FE3B2022BC5
:100140000AD0042B14D0012B16D1144B00211960B6
:10015000127B134B1A800FE0124B1B7A022B03D138
:100160000E4B1A6808321A600F4B1B68984703E061
:100170000A4B1A6808321A600A4B01211C72A0232C
:10018000DB051A680A431A60C046C046C046C0462E
:100190001A6810210A431A6010BDC04620000020D2
:1001A0001C000020000000201000002010B5A0233B
:1001B000DB051A6801210A431A601A6810210A43F4
:1001C0001A60064B1B689847054C237A022B02D114
:1001D000044B1B6898470023237210BD14000020B5
:1001E000000000200C000020064B00225A728023E1
:1001F000DB051968044A0A401A601968034A0A4074
:100200001A60704700000020FFFFF0FFFFFF0FFFA4
:100210007047C0467047064B01221A708023DB05E9
:100220000021597019680F2081430A431A607047F2
:1002300000000020064B01221A708023DB0519689C
:10024000044A0A40802149020A431A607047C046A6
:1002500009000020FFFFF0FF00B5064B72B61A78C8
:10026000002A04D0C046C04662B630BFF6E762B688
:1002700000BDC04609000020054B01221A708023F2
:10028000DB05D96B802252040A43DA637047C0460B
:100290000100002000B5054B72B61A78002A03D081
:1002A000C046C04662B6F7E762B600BD0000002057
:1002B00000B50B4B0B4A72B61978002902D11178A0
:1002C000002904D0C046C04662B630BFF3E762B62C
:1002D000054A1278002A01D001221A7000BDC046DA
:1002E00001000020000000200200002000B5FEE711
:1002F00000B5FEE700B5FEE700B5FEE700B5FEE796
:1003000000B5FEE700B5FEE700B5FEE700B5FEE785
:1003100000B5FEE700B5FEE700B5FEE700B5FEE775
:1003200000B5FEE700B5FEE700B5FEE708B5FF2320
:1003300000221B041A60BFF36F8F00F06DF808BD38
:10034000FFFFFFFFFFFFFFFFFFFFFFFFFFFFFFFFBD
:10035000FFFFFFFFFFFFFFFFFFFFFFFFFFFFFFFFAD
:10036000FFFFFFFFFFFFFFFFFFFFFFFFFFFFFFFF9D
:10037000FFFFFFFFFFFFFFFFFFFFFFFFFFFFFFFF8D
:10038000FFFFFFFFFFFFFFFFFFFFFFFFFFFFFFFF7D
:10039000FFFFFFFFFFFFFFFFFFFFFFFFFFFFFFFF6D
:1003A000FFFFFFFFFFFFFFFFFFFFFFFFFFFFFFFF5D
:1003B000FFFFFFFFFFFFFFFFFFFFFFFFFFFFFFFF4D
:1003C000FFFFFFFFFFFFFFFFFFFFFFFFFFFFFFFF3D
:1003D000FFFFFFFFFFFFFFFFFFFFFFFFFFFFFFFF2D
:1003E000FFFFFFFFFFFFFFFFFFFFFFFFFFFFFFFF1D
:1003F000FFFFFFFFFFFFFFFFFFFFFFFFFFFFFFFF0D
:10040000FFFFFFFFFFFFFFFFFFFFFFFFFFFFFF01FA
:100410004D314830434F3434F8B58023DB059968BB
:10042000802292000A439A6099688022D2000A438F
:100430009A609968802212010A439A6002F01EFEB7
:1004400000F058FD00F070FD8C4BAA2218708C4B08
:100450001A7003F01BFB002003F0DEFD002002F009
:10046000A3FB884B884F0833DB7F5A42534110224D
:10047000D21A864B1A703B78002B1DD1844A012476
:1004800013703C7000F0B4FA824B201C9A785A70BA
:1004900003F0C2FD02F01EFD00F038FE8023DB05F4
:1004A000596B7D4A0A405A6300F0FAFA02F0C7FA23
:1004B00000F02CFE00F0F4FD754B1B78002B1CD0D7
:1004C000764C2378002B18D0754B13201B68984767
:1004D00000F08EFA02F0CAFD02F098FC002000F055
:1004E0002DFC00F0E7FA6F4A012313706E4A138067
:1004F00002F0D0FA2378002BFCD100F025FD634BED
:100500001A781E7873B20F2B2BD005DC002B4DD040
:100510000D2B00D0AEE03EE0112B35D003DB132BCA
:1005200000D0A7E0A4E05A4B00221A7000F082FB32
:100530005E4B1B78002B00D09CE05D4B1A78101CA2
:10054000012A0ED15B490B78002B0AD15A4C0A7054
:1005500023705A495A4C0B7023705A4B1A7000F092
:1005600005FD4C4B587802F06DFD464DE87B02F0DE
:10057000FFFA554C6060287C02F0FAFA1123A06063
:10058000EB56EA7B5343E360414B00221A704F4B1A
:10059000187800F0D3FB3E4B00241C7000F080FA6A
:1005A00002F092FD00F07CFA384B1C70384B0122AF
:1005B0001A7000F02DFAFFF75FFEFFF72CFE012006
:1005C0004349404203F0F8F8354C06202368984729
:1005D00002F0E6FD02F0F6FD00F0B8F8236807200F
:1005E000984703F02DF93B4B1B78002B1BD100F0F3
:1005F000ABFD236808209847FFF71CFEFFF72CFE91
:1006000000F02CFE01F0F2FB01F036FC2368122012
:100610009847314B1B78002B01D101F0F1FD204BA5
:100620000D201B68984700F0CBF82A4B1B78002B55
:1006300012D101F063FD01F046FE194B0F201B683B
:1006400098471C4B1B78002B01D100F0F3FC234B87
:100650001B68984702F0E0F880230122DB055A70FE
:10066000FFF726FE174B0020185600F07FFC01E034
:1006700000F016FA1A4B1E70FDE6C0461604002064
:10068000170400203A0C0020210400208C070020D1
:1006900022040020280D0020FFC0FFFF1E040020C0
:1006A000300600209B070020800700201B0400204C
:1006B0003200002015040020F30300200C04002069
:1006C00014040020F2030020C0000020521000207B
:1006D0001013002018130020180400201800002018
:1006E0003100002008B501F085FD124B1B689847CA
:1006F00011490E230022013BDBB2181C14304000CC
:1007000008188280002BF6D10C490A22013AD2B295
:100710008B54002AFAD10A4B0A491B7802E0013BAC
:10072000DBB2CA54002BFAD1034A1360064A1360A5
:1007300008BDC046180000202C01002044100020F5
:10074000F40B0020C90B0020D000002010B5144B82
:100750001B78002B23D0134C00232370124B042052
:100760001B6898472378114C002B03D1104B1B7842
:10077000002B13D00F4A012313702268022A03DCD6
:10078000D21822600C4A07E0FFF7ACFF0B4B0D229A
:100790001A700023064A2360137000E0236010BD26
:1007A000860700201713002030060020D803002001
:1007B000D503002018130020C80B00208C07002050
:1007C000F7B5764900230522013AD2B2101C0E304B
:1007D000C00008180424005F002800D00123002A6C
:1007E000F2D16F4A6F49127807E0013AD2B2101D78
:1007F0004000405E002800D00123002AF5D16A495C
:10080000002B04D10A686948824201D001320A6093
:10081000674900220A70934251D1624A1268002A45
:100820004DD164480278041C012A0AD16248057837
:10083000002D06D1614C02702370614C0A70237048
:1008400015E0604B1B680E2B11DD2378012B0ED0B9
:100850005D4A136801331360042B08DD0023136025
:10086000574A1370544A1370514B02221A70574B57
:1008700000221A70534B1A60554B1968914209DDDA
:1008800001391960012900D086E01A60484B032223
:100890001A7081E04F4A50494A3212888A427BD00E
:1008A0004E490968914277DB4D4A3F48111C34316B
:1008B0000978006888426FDB3532127843E0444A99
:1008C00000231360181C1A1C191C344FD4197434DB
:1008D0000025645F002C1DDD424FD41974340025BF
:1008E000645F002C16DD2D4DDC195E197568676894
:1008F00001957D1B01D42F1C01E0019DEF1BBDB2B2
:100900006918F66BE56B89B2AC1B00D5741BA4B2F9
:10091000201880B208320433282AD6D1264B1A7800
:100920002F4B002A19D02D4A2F4912680A80198EA0
:10093000264B8A4209DA1B78002B2DD1214B1A68ED
:100940000E2A29DC01321A6026E001221A701D4AA3
:10095000002313601C4A13601EE0194A1B8D127895
:10096000002A0BD11C4A934203D01C4A12689A42B7
:1009700004DA1E4B834201D38B420DD20F4A00236F
:1009800013700F4A0C49137001220A700F490B7043
:10099000074B1A7001F02EFCF7BDC04698020020EC
:1009A000F40B0020E800002000040020FFFFFF7F80
:1009B000F20300203200002015040020F303002081
:1009C0001404002010040020080400200C0400205F
:1009D0000404002052100020FFFF0000101300202C
:1009E0003A0C00206C0100206C1400206390000081
:1009F00010B503F075F8054C00202368984703F004
:100A0000C5F823680120984710BDC0463006002075
:100A100010B51C4B19781C4B4AB21C78002C22D004
:100A20001A4B00241B78A3421DD1194BA14207D0B9
:100A300018490978A14203D117490968A14203D096
:100A40000021196001240EE014491868C968884221
:100A500001DA01301860022A10D00D4B02241B6805
:100A60008B4203DA0AE063B2934207D00B4A63B2C7
:100A70009B00D05802F0ACF8024B1C7002F09AF8C0
:100A800010BDC04628000020860700201D0400205D
:100A90004400002024040020E8000020C0000020C2
:100AA00008B5FFF7B8FB80230122DB055A70FFF77A
:100AB000F1FB08BDF0B587B00024FFF7F1FF524D00
:100AC0000C21E879514A50E014264E434F1C7D001A
:100AD0001323039604970595013BDBB2002C1DD030
:100AE000039E4B4FF5186D00EE5F049F5D1C2D01BA
:100AF000ED196D00575BAD5A0741F71B0541002FFB
:100B000001DB751B00E0AD1B039E6D10F718414E15
:100B1000BE5DB54200DA351C3E4EBD55049F5D1CDE
:100B20002D01ED196D00565B039D0641ED18B6B21F
:100B30000196374F6E00029600956D46BC46AF8811
:100B4000029D6646AF53002C03D1324D009E745572
:100B500009E0632C07D1059DAF5A019D07417E1B1B
:100B60002D4F029DEE53002BB6D10139C9B2FF299A
:100B7000AAD1254A294BD1791B78244A3BE0013B75
:100B80002748DBB2274EC05CF75C0390002C1CD0DA
:100B9000254E9D00AD59039E781C01360001844608
:100BA000301C604404964000165A805A0E41AE1B19
:100BB0000841002E01DB281A00E0401B1B4D4010AD
:100BC000EE5CB04200DA301CE854039D0137013579
:100BD0003F017F197F00D05B134E08419F00B85141
:100BE000002C08D1114E6D00F454AD5A5E000D4139
:100BF000281A0F4D7053002BC1D10134E4B2642C7C
:100C000000D05AE707B0F0BD5210002000080040A5
:100C1000B6100020300D00203C0E0020F40B002008
:100C2000174D0000154D000048060020260D00203D
:100C30004E100020F7B501F015FF01F039FF002834
:100C4000FBD1384B1B78022B09D0374B374948333F
:100C50001A7853425418E05401339342FADD324E6D
:100C6000334F331C48331C7864420CE0BA7880233D
:100C70001219D2B2DB051A71FFF712FF287820187B
:100C800002F072FD0134351C48352B789C42EDDDB5
:100C9000002624E02C782F1C6442483F19E0244BA6
:100CA0009A7880231219D2B2DB051A71FFF7F8FE89
:100CB0002D7801A96519281C02F07EFD1B49019BB6
:100CC0004A5DFF2B00DDFF239A4200DA1A1C4A55C9
:100CD00001343D1C48352B789C42E0DD0136154A35
:100CE000114D137848359E42D4DB01F0A8FE2C78D4
:100CF0000122121B0D4B00210F480BE05D781E787E
:100D00006D0075199E78AD19A84201DBA8B2111CBF
:100D1000013201339442F1DC054B9A785118C9B283
:100D20005970F7BD1B04002052100020DE03002084
:100D3000280D002099100020FFFF0000F0B58BB0B7
:100D40008222029000216148D20003F05DF8029DEA
:100D50005F4B002D09D05F4A5B88157B1AB269B2E0
:100D6000914211DB5D1EEDB20EE09B785BB25B0041
:100D70005B421E1C083601DA08235B42DBB2022705
:100D800003930497002504E06B42DBB20126039332
:100D900004962C1C00265EE010226F46D15701F00D
:100DA000CDFFFFF77DFE4B4B0F27DF576AB205974C
:100DB000DB79921B069309920C2345E01422111C47
:100DC0005943581C079008910195029D013AD2B2EF
:100DD000002D0BD0162058433F4980184156059FDF
:100DE0000998C919091807310E292AD80799501CE2
:100DF000000140181427394940005F43415A069DBD
:100E000037482941411ABF183048BF003858884236
:100E100017DC344F401AB84200DA381C14275F43FD
:100E2000BF187F00BC46304FB84200DD381C2F4D44
:100E300067467853089FB818244F8500E9512C491C
:100E40004454002AC1D1019D013BDBB2FF2BB5D137
:100E5000013CE4B2013669460C22535660B2984216
:100E60009ADA029D002D2AD01A4B2149DD7BDC7ACB
:100E7000131C20E00B269E42BF417F4214220397A1
:100E800014205843013AD2B2162680185E43475CBC
:100E9000B618BC46104FF75D3E1C6644AE19F6B25C
:100EA00002974654122A04D8039F002F01D1361905
:100EB0004654002AE4D1013BDBB2FF2BDAD10020FB
:100EC000011C01F03BFF0BB0F0BDC0469C070020A9
:100ED0003806002052100020194D00000008004084
:100EE000FFFF00000080FFFFFF7F0000B610002022
:100EF000300D002070B580232B250A4C5B006D421D
:100F0000013BDAB2092106E056B25000C2B2002E0F
:100F100001DA6840C2B201390029F5D1E254002B50
:100F2000EED170BD2804002010B50020A022054994
:100F3000031CD2011C7801336040085C9342F9D154
:100F400010BDC0462804002008B5064B1B68002BC6
:100F500006D0054B1B78002B02D101F09BFDFEE76C
:100F600008BDC0460C1600202304002010B5041E46
:100F700027DD022C02DD032C23D132E0FFF7B2FB88
:100F80002048022C04D12049582202F0FFFE0BE039
:100F90001E49582202F0FAFE1D4B1B78012B03D08C
:100FA0001C4B0B201B689847FFF722FD1A4B36336A
:100FB0001A781A4B1A701B78102B22D101F026FFD9
:100FC0001FE0174B1A78002A05D0164A1168013124
:100FD000116000221A70144B1A68132A04DD0022D3
:100FE0001A6010220D4B0BE00E4B1A683B2A08DDED
:100FF00000221A600D4B01201B6898470C4B012200
:101000001A7010BD52100020404C0000984C000097
:1010100032000020300600203A0C00208C0700200F
:10102000FC030020F8030020F403002064000020EB
:101030001F040020F7B5164B1B68022B26DC154B4E
:10104000002034331B78144C0193012313E0013248
:10105000BD186D002E5B2E5B2D5B019EB54201D944
:101060000131C9B20C2AF2D10A2901D90130C0B22A
:1010700001330A2B03D000210A1C1F01E7E70028D7
:1010800004D001F0B7F8054B0D221A70F7BDC04629
:101090009802002052100020000400408C0700201D
:1010A00010B5164B00221A60154B012252425A60AD
:1010B000144B154C187E0138421E9041011C123110
:1010C00021605A7E4042013A531E9A41131C0B3351
:1010D000636015230340238152421423134096205A
:1010E00063814900000102F0EFFDF0235B006361C2
:1010F000C8239B00E0602061A36110BD980200201E
:10110000D00000203A0C0020D40B002010B50C4970
:101110000D230022A02458006400425218194000F8
:1011200042520748013BF5D213230022591E06D331
:10113000044C5B01C2521B191A800B1CF6E710BD50
:10114000000800401A08004000B50F4B0E215A5EFF
:101150000E4B191C3D3109781B7F4A435BB292113B
:101160009A4200DA1A1C0A4B1A608023DB05196BBD
:1011700012050903090B11431963186B110B054A7A
:1011800002400A431A6300BDB4030020521000203D
:10119000380E0020FF00F0FF30B52F4D039C2D7856
:1011A000002D53D1002A04D18C2252426243D21125
:1011B00006E0012A06D1192252426243D211A21836
:1011C00002601CE0022A03D106226500624306E0A9
:1011D000092A07D1A200E500A21A2D195200D21146
:1011E000AA18EDE7151C65430A2A01D1192202E06D
:1011F0000B2A03D18C226243D211AD180560002B5B
:1012000003D1E4016442E41123E0012B03D1A300E4
:101210001B19DB110FE0022B01D1640019E0102B28
:1012200001D1240115E0112B07D1A2002301524264
:101230001B19141BE4111C190BE01A1C6243122B1E
:1012400002D1E401E41112190A6003E062435C4335
:1012500002600C6030BDC0461A040020F0B5822246
:1012600091B000215200B94802F0CEFDB84C8E2258
:101270000021201C520002F0C7FD0E237F20FF2119
:10128000013BDBB21A1C38329200A2189071107127
:10129000D1715171002BF3D1AE4AD382AE4B9A6813
:1012A0000A2A01DC01329A60DA68002A01DD013A7B
:1012B000DA601A68112A01DC01321A605A68002AC1
:1012C00001DD013A5A60A44B00249D6816236B434C
:1012D00005940A9367E11C685CE1631C691C9F4AE2
:1012E0001B015B18995C9E4A4E1EF6B20D2E5DD80E
:1012F0000A9F9C485B003818059FC0190019C175EA
:10130000D35A684603829FB2924B0DA8DA8A0EA97F
:101310000132DA822A1C231C0097FFF73DFF8C4B19
:10132000B2009A1850680D9941185160321C0E3263
:10133000910059184868D20084460E989A18604463
:101340004860918804207918918051890131518138
:10135000321C3832910059180856854200DA0D7156
:1013600092009A18052151568D4200DD5571311CAD
:1013700038318A009B1806229A56944200DA9C71F2
:10138000734A8B00D318072159568C4200DDDC715B
:101390000E36F60092190621535EBB4200DBF8E0E0
:1013A0006B461B8A5472D3801572F2E05B00D35AED
:1013B0000493002B00D1ECE06B4F00230F93042625
:1013C000BC460FAA013EF6B26046684F815DBB5D28
:1013D000091949B25B1901315BB209015F48013358
:1013E000CB18C15C0023C8B2471E0D2F03D909E0FA
:1013F0000133DBB200E040B2D75C002F01D087425E
:10140000F6D1D154002EDDD1331C0FAA9A5CDFB285
:10141000002A04D00133042BF7D11F1C02E0002F57
:1014200000D1B6E00A994F4B059ACB189B183A1C8D
:101430001B190F32DA75049B2A1C00930DA8231C7C
:101440000EA9FFF7A9FE391C0D9802F03DFC391CCE
:1014500007900E9802F038FC391C0890049802F0AE
:1014600033FC7B1E4142002209930B910692384BBC
:1014700003901EE0925D0136013A52B29100591874
:1014800048680E3284460798F6B284446046486045
:10149000910059184868D200844608989A188444E4
:1014A00060464860918803984118918051890131C4
:1014B0005181069A049811180B98121809980692EF
:1014C0000FAA8642D6DB0491905D013840B28600B7
:1014D0009E1971680E308C4607998C446146716084
:1014E00086009E197168C0008C4608991B188C44B0
:1014F000614671609888049EA44631189980598984
:1015000001315981012100233FE03C20C0186E4683
:10151000845D601E049CC0B20690A05C461E0698C6
:10152000F6B2B04206D214244443A619074C012057
:10153000A05508E014204643069C04483619069638
:10154000069C01260655013218E0C04628050020F9
:1015500054060020B4030020C01200200002004006
:101560000004004019130020483F00004C3F0000D9
:101570004CB20FAE3619002204960794079C10193E
:10158000B842C2DB01310133C9B2099EB342EFDB7D
:101590006446013C3B4B5B689C4200DB9DE6059F3B
:1015A000013D163F0597374BDA68954200DB92E61E
:1015B000354F00256B00DB1974331E88002E2FD0A9
:1015C000EC19606836B2311CC00102F07DFB60602E
:1015D000E06B311CC00102F077FB231CE063E533B4
:1015E0001A7851B20A2901DC01321A70231CE43343
:1015F0001A7851B2002901DD013A1A70231CE73331
:101600001A7851B2112901DC01321A70E6342378BC
:101610005AB2002A01DD013B23700435382DC9D1AF
:101620001A4B1B481A781B4B191C33331E78323166
:101630000F780368B4461EE0013AD2B2164C51004E
:10164000615A0EB2F643F6170E40111D4900B5B2AD
:101650000E52002D0FD0114E2DB28E5F002E04DCE5
:10166000BD4207DA00250D5205E0654502DA002685
:101670000E5200E00133002ADED1054A11B013609A
:10168000F0BDC046C012002054060020F40B00201C
:10169000E8000020521000204E100020DC00002046
:1016A000F0B5A64C431C8FB0DBB20A932368071C2D
:1016B0000E37013B2360FB00E31803920293089767
:1016C000051C04201F5E0E1C05970F1C0E37FB0027
:1016D000E3180493099704201F5E05980697C7191D
:1016E00007978B00AF00E719E3187868059A5B68E5
:1016F000069950434B430799181802F0E5FA00B2D7
:101700007860089B09989F008300E719E3187868C0
:10171000059A5B68069950434B430799181802F0E5
:10172000D3FA00B27860281C383080002018039962
:101730000422043002F02AFB049FFB88029F1AB2A5
:101740000621795E914209DA029FFB80049F7B7A31
:10175000029F7B72049F3B7A029F3B722A1C331CC0
:101760000E320E33D200DB00E318A4189988A28849
:101770008A18A280598962898A18F1B2481C40B23D
:101780000290142068436281029C002220189A80F3
:101790000490131C06910EE0142474430499A4468B
:1017A000781802998C446744C15CFC5C2143C154A5
:1017B0000020F85401330132069CD2B2101940B215
:1017C0005F4F0D28E8DD14206843BA190023C719BC
:1017D00011E0AB4205DA911B4C5D1078204348556F
:1017E00005E0AB4203DD1078F95C0143F9540021B8
:1017F000117001331432B342EBDB039F68463F782C
:101800001021049708561627079047430022AC463C
:101810005EE0039C0020A1784A4C4DB27B191B1955
:1018200008950D934CE0089B0D9CC3182418099350
:10183000E37D079D013B5519DBB20B95029405939F
:101840006D46142463570F2B37DD002301250693C3
:101850006D4204230092013B3B4CDBB2E4563B4A11
:101860000C94D2560B9CA418013416226243354CBA
:10187000A418099AA2180C9C019214190C9464786B
:10188000013CE4B20D2C0DD864B2644501D0B442E1
:1018900008D16A1C02D0A54202D103E0251C01E058
:1018A00001240694002BD6D1069D009A002D04D069
:1018B0006B461424E45C029BDC750131C9B2013033
:1018C000039D03242C574BB29C42ACDA01321637ED
:1018D0000498039C0121131861565BB2994298DA6F
:1018E000237800205DB201351624AC461EE0039D2E
:1018F00067463A18A97862434DB20135AA18114DCE
:1019000052190AE01578013D6DB2B54202D10AAF15
:101910003F7817700131C9B20132039D0327EF5799
:101920004DB2AF42EEDA0133DBB20130039F012149
:1019300079565AB29142DADA0FB0F0BD540600205F
:101940002805002019130020483F00004C3F0000EC
:1019500010B50B78002404575AB2944200DD03708E
:101960004B78012404575AB2944200DA43708B78C2
:10197000022404575AB2944200DD8370CB780321CD
:1019800041565AB2914200DAC37010BDF0B58BB027
:101990000024231C0E333C48DB00C31804215A5E8C
:1019A000002A6BD05A7A02921B7A16221F1C013F22
:1019B0007A430393354BD3180193029B01331801EB
:1019C0000593079055E0029E013E4BE001981725D4
:1019D00083195D577A1C013D711C0D2D41D8AC4215
:1019E0003FD0090188182A4B00914000C05A069048
:1019F000201C0E30C1002448844661440620095E44
:101A00002448C08C8446069881422ADC60464143C3
:101A1000881100998C4604998C4461464900C95A42
:101A200088421EDA07998A185200D35A984218DA67
:101A3000A54202DA231C2C1C1D1C2A1C124B383216
:101A4000211C920038319A1889005268C918043153
:101A500009A80992FFF77CFF201C291C09AAFFF79F
:101A60001FFE0236059A9642B0DD019B02372C33E9
:101A700001930398013004908742A4DD01340D2CBA
:101A800087DD0BB0F0BDC0465406002019130020BE
:101A90000004004052100020F0B5CA4B9DB01A68F7
:101AA000C94B012A07D1C94A1268012A03DD5E8C9D
:101AB0000A969B8C02E0DE8B0A961B8C0B930D24FE
:101AC00078E114236343C24E5B199B5D002B00D168
:101AD0006AE1BE4EA700AB00F719F3187A680293CB
:101AE0005B68201CD31A0E300893291C8300F3185E
:101AF0000E3105938B00F31806930390059B06980F
:101B00005A6843680191D31A0899D817CA170993DC
:101B10001B1889184340514004932B1C07913833FC
:101B2000211C9B003831F31889005B688919043146
:101B30001BA81B93FFF70CFF01997868CB00159049
:101B4000F31804215A5E03990192CB00029AF61809
:101B50005768019B0422B65E0199F3180293331C67
:101B60007B4348430299C01802F0AEF8059A1690DC
:101B70000698536801991797476818937E434B431B
:101B80000299981902F0A0F80C221990002112A8CD
:101B90001A9702F039F96D226A4412786E2352B214
:101BA0000E926B441B786F265BB20F936E443678AF
:101BB0001BA876B21096002282561620571C42436C
:101BC000844B0026D31805961193B5E0069EF601C6
:101BD0000C960F9EA5E01198059943189B199B7DC3
:101BE0005BB20293013B0D2B42DD002001214942F3
:101BF000844604230096013B774ADBB2D256774EE7
:101C00000392F656069A9219013216265643714AE5
:101C10009219019E9619039A0D96B2180392527862
:101C200052B2013A0D2A0ED8AA4201D0A24204D1E2
:101C30004E1C04D0914204D105E0012003E0111CA8
:101C400001E001229446002BD5D1009E013168D0DD
:101C50003201D219624B5200002813D0604600288E
:101C600010D10299985A0F3902F02EF802900BE029
:101C7000002B56DBAB4201D0A34252D13201D21924
:101C8000574B5200D35A02930299002949D0019A26
:101C90000323D2010D920193019B0799013BDBB213
:101CA000049A98000193039091420FDD18AB1858E5
:101CB0000D99099A401A5043089902F005F8039AC1
:101CC00015A98B58C0180C9BC01A0FE0039A15A9D0
:101CD00088580C9B0899C01A4843099901F0F4FFF1
:101CE000039918AA53580D9AC018801AC317C01820
:101CF00058407F2812DC01998B0080210A1A029833
:101D000048214243D211C91803926A468858039960
:101D100084460A1C6244483368461A5001990029D7
:101D2000BAD10136109B721E01929A4200DC52E732
:101D3000059E0137163605960E987E1E069686423B
:101D400000DC43E7149B129E9E4200DD1E1C079997
:101D5000049A914202DC131E0ED003E0079B049804
:101D60000493079007998801049901F0ADFF3F287B
:101D700000DD3F201B4B1B5C2D210A9AC81A5043E3
:101D80000B9A5343C01801F09FFF4643139BB612B2
:101D9000B34209DDA54202DA231C2C1C1D1C201CA9
:101DA000291C1BAAFFF77CFC01350E2D00D088E60C
:101DB000002C02D0251C013C83E60B4B1DB01B6898
:101DC000F0BDC0460C130020521000205406002025
:101DD0002805002019130020483F00004C3F000058
:101DE00000040040083F000034000020F7B5012146
:101DF00049420F221C4802F007F8FFF7C7FDFFF722
:101E00004BFE1A4C0023261C2360743601931F1CC2
:101E10001D1C0021725EFBB2002A1DDD226801320A
:101E20002260114AD5559D4214D00199AA000B1980
:101E30005968A218281C51600E30DA6B8300C0006C
:101E4000E31820185A600430311C082201F09EFF6C
:101E5000002333800135EDB2019A01370432083690
:101E600001920E2FD5D1F7BD700700205406002037
:101E70004943404340187047F0B5954B85B01B78F7
:101E8000E020002B01D0800200E04002914A924BFA
:101E9000D18A1980128A5A80904B0022191C9431E1
:101EA0000A80191C9A310A80191C8C310A80191C6D
:101EB00092310A80191C84310A80191C8A310A80E7
:101EC000191C7C310A80191C82310A80191C74315A
:101ED0000A80191C7A310A80814A1168021C8842E2
:101EE00000DD0A1C01211A6049420E227D4801F0E2
:101EF0008BFF7D48FF21382201F086FF784B0024BC
:101F00001B680393794D2B5D002B40D0784EA300C6
:101F1000F7580A203F014743764BE021620049020F
:101F20000126D3187F187642002502931FE02B1C50
:101F30000E336B48DA0082180421525E002A14D056
:101F40000299AA00821850688A889B00801A644A05
:101F500000B2D318029A5968138BC91A09B2FFF755
:101F600087FFB84201DA2E1C071C0135EDB2039B36
:101F70009D42DCDB751C0AD05A4B5B499857B20076
:101F8000013002D08858B84201DD8F509C55013491
:101F9000052CB7D10023524A504934E0514EF05C31
:101FA00044B201342DD09C00C0B216198700766867
:101FB000CD196E601D1C0E350195AD00AC46061C9A
:101FC00094440E36654602970394B7006C68CF19A7
:101FD0007C60019FF600FD008E195519043604350A
:101FE00090CD90C61D1C3835AD00383055196D6840
:101FF000800008184560039C3B48029D20583C4ED9
:10200000A8510133DBB210688342C7DB0023344C94
:10201000324949E0334FFA56013243D11A1C0E328D
:10202000D200A2180420125E002A3BD02F480022C2
:10203000865CD5B2002E32D1D600761874360027D1
:10204000F65F002E2BD127489E00C55424489500EA
:10205000861976684D196E601D1C0E350395204E4D
:10206000AD00AC46101CB4440E306646756887005F
:10207000CF197D60039FC5001948FE0086194D19D0
:102080000435043681CE81C51D1C3835144EAD0093
:1020900038327019920040688A18506002E00132AC
:1020A000052AC5D10133DBB222689342B2DB124B61
:1020B0000C491C1C0E34FF201A78042A02D88A5CB2
:1020C0001A7000E018700133A342F5D105B0F0BDDD
:1020D00015040020B40300206C1400209802002096
:1020E000540600208D070020D4120020200100207B
:1020F000F8000020F80B002070070020F0B52548FC
:10210000254A26490523013BDBB21D1C0E35EC0098
:1021100007190426BF5F002F1CD014190426A45FE2
:10212000002C17D09F00D419C71964687F685E001F
:10213000E71B7F103C19AD008F19BC80541945195D
:1021400064686D681F1C651B0C376D107F002C19AF
:10215000CC530EE09D0055196D685C000C19A580EC
:102160001D1C0E35AD001C1C55190C346D68640027
:102170000D531D1C084C0E35ED0065190426AD5F8E
:10218000074E6F1EBD41F554002BBCD12268034B96
:102190001A60F0BD6C01002098020020F80B0020AE
:1021A0002001002008B500210A220B4801F02CFE76
:1021B0000A4B0022191C94310A80191C8C310A80A8
:1021C000191C84310A80191C7C310A80191C743155
:1021D0000A801A6008BDC0468C02002098020020C8
:1021E000034B012252425A6000221A609A607047E3
:1021F000E800002008B5FFF7D5FFFFF7F1FF08BDA5
:1022000038B5234B0022234C5A60111C0523013B97
:10221000DBB2181C0E30C00020184089251C09189C
:10222000824200DA021C002BF1D11B482C680160AD
:10223000174842601948002C1DDD194BDC8FA14264
:1022400003DB991CC98F8A4203DA0433DB8F9A427D
:1022500001DB012303700278124B002A02D01A68B6
:1022600001321A601A683C2A0BDD00221A600E4BFC
:102270000D221A7005E00D4A01211170094A037000
:102280001360064B1B78002B01D0FFF7B3FF38BD5E
:10229000400600209802002064140020F400002072
:1022A00052100020480000208C0700203000002041
:1022B00038B559435043D418651040184019211CB3
:1022C00001F002FD38BDF0B5BC49BD4A0B1C3A33E4
:1022D0001F780B1C56331B7852688BB053439B11ED
:1022E0000E8EB84D01932E24085F2A6805230290B4
:1022F000013BDBB2181C0E30C00028188188002971
:102300002CD0B14C09B2E45C002C02D064B2BC42C7
:1023100017DA0298814208DB191C0E31A94CC9005A
:10232000611849890198814218DA181CA5490E30B4
:10233000C00008180021C180418181809C00A34811
:102340000AE034B2A14209DA0021C18041818180D2
:10235000980084469D4864462150013A002BC7D11D
:102360009B49984D0A602B600524013CE4B2231C74
:102370000E33DE000796AF19BA88002A00D191E02B
:102380008E4E12B2318E934E08B2121A521049007C
:10239000511889B20191684680888B4AB880115DD6
:1023A000367848B20296B04202DA013111554FE058
:1023B0008948A600884982199B005068CA1852684B
:1023C000AE1903922A687168EB1801322A605A68C4
:1023D00008930B1A0492DA179B1853409C46039AF1
:1023E000049B9B1ADA179B18534063440593734B65
:1023F00036229B5E1A1C0693059BFFF759FF049932
:102400000990069A0398059BFFF752FF099B7249B2
:102410007360089E079A7060684E3820365E039697
:102420008E186A460423F05E0421515E431ADA17BF
:102430009B185340039AFFF73BFFB8807089798956
:10244000039A431ADE179B197340FFF731FF788117
:10245000614A5C4BA100501859184968261C0E3679
:102460004160B100501859184968F600416091194F
:102470009E19B4460427BC44039604316046C0C884
:10248000C0C1211C383189005B185B685218536049
:102490004D4B029E1B57B34206DA0123039F5B425A
:1024A000BB8001E0484E3255002C00D05DE7454826
:1024B000494905680A68494B954227DA1A6801328A
:1024C0001A60002A1DDD021C1C60943212880B1C4D
:1024D00094331A80021C8C3212880B1C8C331A80A5
:1024E000021C843212880B1C84331A80021C7C323A
:1024F0000B1C12887C331A807430038874310B8073
:1025000005E08E22520001F041FC00E01C602D4BE2
:102510002A4C1A68304B01211A60314B0020494285
:10252000251C1860596033352F78251C32352D78DD
:102530003A3402356D08039524782A4D013C049401
:102540002E886C88284AAD881278AC46029101909A
:102550000697051C52E0013AD2B2101D4000195AEC
:10256000002926D00CB2039F204E64103C19367807
:10257000A4B21C52012E01D104341C52141D64005B
:10258000174F1B480594E65B845C049FA446BC423D
:1025900008DA0124A44467468754059C104F0020A4
:1025A000E05304E0019C30B20135844222DB069CFA
:1025B00023E00F4FB95461461FE0C046521000207F
:1025C000400600209802002044100020F80000205F
:1025D0000C1300208C1000206C01002088020020C9
:1025E000E80000206C140020F40B00201A040020E6
:1025F000C90B0020069C029201908C46002AAAD1A9
:10260000464A281C186065460298168054809580BA
:10261000434A586070CB70C2424B1B68012B5BD1A0
:10262000414B0E27DA5F1D2A64DC9A7C1420041CBF
:102630005443DB7C3D49E418651E6D006D5E033537
:1026400022DA02346400645E02341DDA541C44430E
:10265000E4186400645E052C06DD941C6043C01819
:102660004000415E013141DB541E142044432F4998
:10267000E4186400645E052C06DD941E6043C018F7
:102680004000415E013131DB1420041C5443E41846
:102690002649023C6400645E05342BDA541E444330
:1026A000E4186400645E052C06DD941E6043C018C7
:1026B0004000405E013019DB541C14204443E418F0
:1026C00064000C5F052C15DD02325043C3185B001B
:1026D000CB5E01330EDA09E0022B0BD1124A937F55
:1026E000032B07D9D27FD318062B03DD104B1A69B1
:1026F000013201E00E4B00221A610E4B1A780C4B8E
:10270000002A01D000221A611A69032A04DD00227E
:102710001A61094B0D221A700BB0F0BD6C14002029
:10272000DC00002098020020B4030020B610002036
:10273000AC0B0020150400208C070020F8B5344DA8
:10274000041C0A23EE5E036869681801C31A580165
:10275000C90101F0B9FA361826600823EF5EC820D7
:10276000636829688000C901584301F0ADFA2A69FD
:102770003F1867602749964207DA0631CB7FB61AC1
:102780005E43B611921922600CE0F0235B009E1BA1
:10279000964207DA0631C97FB61A4E43B61192192E
:1027A0009B1A2360EB681B499F4207DA0431CA7FFA
:1027B000FF1A5743BF11DB1963600CE0C822920077
:1027C000D71B9F4207DA0531C97FFF1A4F43BF115C
:1027D000DB19D21A62600F4A2168931CDB7F101C40
:1027E000994206DD0A4A5269D51AA94202DB013A2A
:1027F000D31A2360C21C6168D37F994206DD044A64
:102800009269D01A814202DB013AD31A6360F8BDA3
:10281000D40B00203A0C0020F0B5484E85B00524BA
:10282000013CE4B2211C454A0E31CB00D3180420F0
:102830001B5E002B62DD201C414B14304000181839
:102840000425405F002849DD3E4B1A5D3E4B002ABF
:1028500001D13B3300E03C331F78A300F3185B68E1
:1028600068460093231C0E339B00F3185B680193AA
:10287000FFF764FF324D6300EB1804201B5E02A8D3
:102880000293231C0C335B005B5F0393FFF756FF3F
:10289000029B009A291CD31AD8171B184340BB422D
:1028A00007DA019A039BD31ADA179B185340BB42ED
:1028B00024DBA200B21852686300CB189A80221C55
:1028C0000E329200231CB21852680C335B00EA529D
:1028D0001C4B1A5D002A11D101220EE0A5005519EA
:1028E00060006D681818890085805218201C526895
:1028F0000C304000C252134B00221A55201C0F4AC4
:102900000E30211CC0000E4B143110184900808875
:1029100059188880002C83D111680C4A19600C4B1F
:102920001C1CE0CCE0C20122002902D11A68531E0F
:102930009A41084B05B01A70F0BDC04698020020BD
:102940002C0100208C02002052100020D00000201A
:10295000E800002024040020EFF30880704700BA4C
:10296000704740BA7047C0BA70471F2342091840E9
:1029700001238340181C024B9200D0507047C04680
:1029800000E100E01F234209184001238340181C86
:102990002032024B9200D0507047C04600E100E068
:1029A0001F234209184001238340181C6032024B48
:1029B0009200D0507047C04600E100E070B500289A
:1029C00016DAC0B20F230340083B134A9B089B0052
:1029D0009B18032210409040FF225D68141C844025
:1029E0008901A5430A408240281C1043586011E029
:1029F00003248208094B2040C032A0409200FF24EB
:102A0000D558261C86408901B5430C408440281CBB
:102A10002043D05070BDC04618ED00E000E100E05A
:102A20008023DB051A6B1F218A4315210A431A6391
:102A30005A6B0F218A430E210A435A637047074B92
:102A40003F2019688023DB0501390140044A586B97
:102A5000090202400A435A637047C046CC0B00206B
:102A6000FFC0FFFF8023DB05596B034A0A4080212A
:102A700089000A435A637047FFC0FFFF70477047E1
:102A80008023DB055969082211435961D9689143B4
:102A9000D96070478023DB055A6908218A435A614F
:102AA00070478023DB055A6908210A435A61704741
:102AB0008023DB055869082318404342584170477A
:102AC00030B5A023DB051A68012082431A601A681A
:102AD00010218A431A601968204A80240A40802104
:102AE00009020A431A601A681D49E4000A40224399
:102AF0001A601C688022120614431C601D68194C61
:102B00002C409025ED052C431C605C6820435860E8
:102B100058680140802040000143596058681249BC
:102B20000140C02080020143596058680F490140AC
:102B3000596058688021890501435960586880218F
:102B400049050143596019680A431A60C04680224A
:102B5000596852040A435A6030BDC046FF0FFFFF58
:102B6000FFF8FFFFFFFFFF80FFFFF8FFFFFFFFFE03
:102B700038B5094B09495A78DC785143084B051C94
:102B8000C918084801F0A0F8064B291C0134584325
:102B9000A14001F099F838BD280D002044FEFFFF48
:102BA000FE24020040420F00014B18707047C046DF
:102BB00002000020054B19688023DB05DA6B09024F
:102BC000120E090A12060A43DA6370470400002055
:102BD000014B18607047C04604000020024B187873
:102BE000434258417047C0460100002070B5134968
:102BF000134B04241960134B134D1A6822431A60B7
:102C00001A680224A2431A601A68012422430F4C56
:102C10001A60002222600E4A11602E78ED7870430F
:102C20000135E840091A1160206811688842FBD21A
:102C30001A6801218A431A6070BDC046FFFFFF0079
:102C400014E000E010E000E0280D002018E000E0B3
:102C50003406002001304300181840187047F0B5C2
:102C60008DB003AC0091071C0021201C242201F030
:102C7000CBF80C25013DEDB2234A281C0321565DFB
:102C800001F018F80C23CCB25C4376B203AA6B1C9B
:102C9000301C03211419019301F016F8019A40B277
:102CA000800023898240101C18430123B3401E1C5E
:102CB000638820811E436680002DDBD103240C2510
:102CC000009B013CE4B2002B08D02B1C634303AAF9
:102CD000D3180E4A0121D257914059602E1C6643E9
:102CE00003AB9E197B1C211C7381381CFFF7B2FFBC
:102CF0006843074A311C80180C2201F047F8002C69
:102D0000DED10DB0F0BDC046064D0000F04C000015
:102D1000000C004010B5012040420021FFF79FFF4A
:102D20000024201C01210134FFF799FF132CF8D156
:102D3000201C0121FFF793FF10BD7047F0B587B04D
:102D400003900F1C15250021049100236A462A498F
:102D50009382C97B013D49B26E1E02910C24013C55
:102D6000E4B20095002D17D00023022F0FD0012FC1
:102D700004D014226243214B9219D3561622624387
:102D80001F4992195256029952187A439B18039A76
:102D90000F219B1819400091201C032100F08AFF8D
:102DA000184BC9B2490001911857032100F08CFF5C
:102DB000009A40B280008240101C019A04A9535A24
:102DC00018430B1CD052002CC9D10324013CE4B29F
:102DD000211C301CFFF73EFF0C21484363006A466C
:102DE00010339B5A0849425A4352002CEED1002D11
:102DF000A9D107B0F0BDC04652100020300D002010
:102E0000194D0000064D0000000C004070B5274A27
:102E10008023DB05147C9D68072125480C40240392
:102E20002840204398609C68224820409860947A0B
:102E300003209D68044020482404284020439860D3
:102E4000547A3F209D6804401C48A4042840204335
:102E50009860107A9C680140080619492140014396
:102E60009960986880210905014316489960048893
:102E7000191C38310C7085789E6B7F21124C0D40E7
:102E800034402D022C439C6304799D6B0F480C4009
:102E900028402404204398639279986B11400A06D5
:102EA0000B4901401143996370BDC0465210002088
:102EB000FF8FFFFFFF7FFFFFFFFFFCFFFFFF03FF11
:102EC000FFFFFFF838060020FF80FFFFFFFF80FFB5
:102ED000FFFFFF8070B58023DB0559684D4A0A402B
:102EE0005A6004225A625A61C046C046D9691142EA
:102EF00001D04D2103E0D969114202D14621464A51
:102F0000117000223F205A629A62DA601A61586199
:102F10009A61424A0124507880211871D0785D6806
:102F200004403F48A40728402043586010790324F8
:102F30005D6804403B482407284020435860557989
:102F40000F205E68384C05402D0434402C435C60F3
:102F50009579364C5E6805402D0634402C435C6004
:102F6000D2795C68104002053148C9052040104301
:102F70005860304B8A681B7D002B03D080231B01D7
:102F8000134301E02C4B134080248B60E405FFF7D2
:102F90003DFF236B602293432363236B8022134303
:102FA00023630025FFF73CFDFFF78AFDFFF7B2FE24
:102FB000281C65700221FFF701FD291C0120FFF785
:102FC000FDFC02200121FFF7F9FC0320011CFFF7A3
:102FD000F5FC04200321FFF7F1FC02210520FFF797
:102FE000EDFC281CFFF7C1FC0120FFF7BEFC02200E
:102FF000FFF7BBFC0320FFF7B8FC0420FFF7B5FC8C
:103000000E4B04215D600E4B1A690A431A6162B6C9
:1030100070BDC046FFFEFFFF3E000020280D0020CF
:10302000FFFFFFBFFFFFFFCFFFFFF0FFFFFFFFF03E
:10303000FFFF0FFF3A0C0020FFF7FFFFFCE100E06D
:1030400000ED00E000B58021C9050B795A1E9842B9
:1030500009DD01E0DAB20A7101338342FADD04E0EE
:10306000D3B20B71013A8242FADA00BD08B5024BC5
:103070005878FFF7E7FF08BD280D002008B50C4A77
:103080000C4B0D4901E001CA01C38B42FBD30B4B32
:103090000B49002200E004C38B42FCD3FFF75CFC29
:1030A000084B002200E004C38342FCD308BDC046A5
:1030B000503F000000000020440000204400002099
:1030C000E41400200C160020F7B5294B00241C70D6
:1030D000284B211C5C603022274800F095FE274BCE
:1030E000274A1C7001231370264A201C1370264B9C
:1030F000D9790C23013BDBB2244E5D1C6A00945B42
:1031000014265E43224F5A000C41D45301961322D9
:103110009C46013AD2B2531C1B011C4F5B195B0049
:10312000FE5A019F0E41BB181A4F9B00DE51A61B91
:103130008019002AEDD16346002BDBD1124B164DCE
:103140005E8D002E02D140232B600BE0E42100F0C5
:10315000BBFDB601011C301C00F0B6FD6E2800DD81
:103160006E2028600D4B00221A605A60F7BDC046E1
:1031700086070020AC0B0020B0140020D0120020E5
:10318000D20B00201613002052100020000800402F
:10319000941400209C070020F00B0020480600201B
:1031A000044A00231370044A1370044A1370044A3B
:1031B00013707047380C0020C80B00201413002037
:1031C00018130020F0B5A64BA3B01C78002C00D03B
:1031D0009BE2A44AA44812780378039201325D1C52
:1031E00012015219A14F5200D25B5D009446A04AD1
:1031F0006646A95A9F4AD5792E418D1B4E218E5E77
:10320000B4460126059665450ADC50320027D65F94
:10321000694614277A5CB54200DB221CD2B20592C3
:103220000133DBB203700B2B09D903998D4B0131AC
:103230000022C9B202701970122900D91A708E4981
:1032400000238E4C4B600B60FF224B838B820B83E1
:103250000B82CB818B608B81CB778B77CB748B741C
:1032600084492360A3606260E260C87918261390E5
:10327000139C83481C272041199082484D78006890
:103280001A951B90804800781C90081C35300078F7
:103290001D907E4800781E908E571796CF571E1CA3
:1032A0001F97497E0E9349B218910C930A93049389
:1032B00014930993039207930D920F931093119314
:1032C0001293159306930C2111E1029809E016223E
:1032D0004A4314274F436E4C00251219281C209294
:1032E00021974C1C0894471C209C0297C2B20B9259
:1032F00000272218029CD775089F2201D2195B4F24
:103300005200BC5A139A199F14413C1BE243D21736
:1033100014401A9A002A07D05E4A219FBA18125CFC
:1033200054431B9A544324135B4A502794461C9AD7
:10333000002A10D14F43800067443A58089018B2D1
:10334000121B904200DA93B230B2904200DD96B286
:10335000089ABC50C6E04F43BC4462468700D75928
:103360004E4A7F11BC4628274F43BA180192575F37
:10337000169767463A1B1D9F002F0AD0620012194C
:10338000169F00926446E21B009C6746A2189210AA
:10339000BA1A1E9C002C05D0169FBC18019F641001
:1033A0007C5301E0019C6253019F6C467F5B019757
:1033B0000427E45F069F16943F190697169F1CB2D8
:1033C000BC4201DA6C46A38834B2A4466C4604348D
:1033D0000027E75F9BB2BC4501DD6F46BE88B6B2F1
:1033E000002A5DDB132A03DD0E9FBC18A4B20E94E5
:1033F000062A06DD0B9C002C03D10C9C0134E4B2A0
:103400000C94179FBA4203DBD41B0A9F3F190A97FB
:103410006F46103700243C5FA24204DB0B9F94B23E
:103420000494149715911F9CA2420FDB099F8F42B1
:1034300000DA0991039C8C4200DD0391079F8742CB
:1034400000DA07900D9C844200DD0D90029F089CDD
:1034500038010019054F92B240003A5242E0C0468E
:10346000380C0020DD030020DC03002000080040B1
:103470009414002052100020B4030020C012002039
:10348000FFFF0000F00B002086070020150400203D
:1034900019130020634E00009C070020B610002086
:1034A0000F98801A0F90541C06DA0B9F002F03D13F
:1034B00010980130C0B210901898824203DC119C21
:1034C000101A2418119412AF0020385E824201DCD9
:1034D00092B212920298089C020112198C4F52006B
:1034E0000020B852029A0235132A00D0EDE60139C5
:1034F000C9B2FF2900D0EAE6864C382523836B4603
:10350000EB5A0CADA38114AB1B7866832D780A9E11
:103510006F461020E5772660C55BE37407987E4B05
:10352000099E039F0D9918609E60DF60596015AA7F
:1035300010AB12781B7812AFA274A3770F9A774B57
:10354000119E3F880020195EE581A2606660A78217
:10355000069800F0B9FB724BA0839B7E2DB29D4272
:1035600003DA1421635E073302DA6E4B01221A700C
:103570006D4B6E4A1B78002B0AD1059C002C07D09E
:103580006B4901230B70674913700B7069490B700D
:103590001178002900D0B8E0614A674BD579101C3A
:1035A000039552300027C65F101C04965430002546
:1035B000445F1B7805945678581E0696927E470005
:1035C00007925E4A5E4C1268BC4608925D4A8000D3
:1035D0001278644402928446554A5B48029F0A94DA
:1035E000604416787C427C414E4A644215780994C6
:1035F000504A0A9C12780B94AC463FE0534D013B75
:10360000EC56534DEF56651C01373F017F19029769
:103610007D003F4F7F5B4F4D029767007C5B039DB2
:10362000029F2F41404DBFB22D78E71B002D09D1DD
:10363000049CA74202DC059DAF4203DA0122111C63
:103640009446161C069CBFB2002C04D0424DED5C83
:103650006F43BF11BFB20568079C6D11ED1BADB282
:103660002FB2A74200DB0121089F002F01DD099C3A
:1036700025400B9C04382580023C0B94002BBDD1C7
:103680002B4865460670274805702848017029496F
:103690000A701A1CA02501336D0059191C4E4900EF
:1036A00072520C2BF6D10023284A2C481D1C244FA3
:1036B000F95E1E2925DD00241457294FE6197600EE
:1036C000375ABC46274FE7197F0002973F5A1234FA
:1036D000FF3402976400245A0394644664008C42C9
:1036E0000FDA7F008F420CDA039F7C008C4208DAED
:1036F0000749074C8D53002151562231FF314900B3
:10370000655202330132042BD1D123B0F0BDC04643
:1037100000080040B4030020C0120020D00B00209D
:1037200052100020C80B002033000020141300208A
:1037300018130020FC030020F40B00206C01002073
:103740004E1000201504002048060020174D0000F0
:10375000154D000094140020674F00000004004045
:103760003101000021010000F7B50F4B0F4A104F47
:10377000D9790C23013BDBB25C1C6400145B451C53
:1037800007D15E0001960C41261C0A4D019C665330
:1037900007E0A44614245C4365462418A4000D41A8
:1037A000E551002BE6D1F7BD521000200008004083
:1037B0009C07002094140020F7B51D4B0025DE79EE
:1037C0008C460C23013BDBB2411C03D1194A590042
:1037D000895A05E014215943174C09188900615A88
:1037E0005C1C164A6400A75A3741C91BCF17C91978
:1037F00079406D18411C0DD1A15A5A0031410192F6
:1038000000916F463A880B49019F7A520B4F002175
:10381000E15308E00949675A14245C430649241817
:10382000A40037416750002BCCD161460D60F7BD35
:1038300052100020941400209C0700200008004033
:10384000F7B5814B1B78002B2BD0804B804E18781E
:10385000804B44B219685B68A200CB189351411C9D
:103860000023271CC9B21A1C0C37A51A00D5BD1A93
:10387000AD00AD595B190D1C0B2901D90C3DEDB202
:10388000AD007559013101325B1BC9B2062AECD17A
:1038900001306E4AC0B2107040B20B2801DD002129
:1038A00011706D4A1278002A00D0CBE06B4A1420C8
:1038B000115E8B4202DA6A4B0121197065491823A7
:1038C000C85E1A240B5F917DC31A8B4206DC654BE0
:1038D0001A7851B20132022905DD05E0D27D93420A
:1038E00002DB604B00221A705D49574B0A78002AB0
:1038F00043D05C4A1278002A04D1187800283CD0C2
:103900000A703AE0032A38D11C780C21564A1AE092
:1039100014254D431323013BDBB2002C08D1EE18D4
:10392000B700D05976004001D051504FBC5308E049
:10393000EF184E48BE007F00C75F90597F01C71B3C
:103940009751002BE7D10139E2D23F4A0023117889
:10395000994205D10123137008E05818026301E071
:103960003B491A1C043B1C1C3434F6D13C4B00224E
:103970001A703F4B01221A7064E01A783D4B002AFE
:1039800006D13B4A012111701A6852181A6059E099
:1039900000221A60384B344A1F782E4B1C269B5F3E
:1039A000D9175818484001900C2120E014254D43A8
:1039B0001323013BDBB2002F08D0EE18B0007400D7
:1039C0002A4E345F1658341B14500EE0E818274C6A
:1039D00086004000205A04B2072C00DD0720019C1D
:1039E00000B2A0409459201A9051002BE1D1013926
:1039F000C9B2FF29DAD1194BDC7E1F4B1B78002B93
:103A000001D164B201E0642464421C4B1B78002B9A
:103A100018D11B4B1B4A1B781B4811E0013BDBB242
:103A20009D00A958002903D05E00865FA64204DAF3
:103A30005E00865F9D00760100E07600891BA9503C
:103A4000002BEBD1F7BDC04686070020D012002026
:103A5000B0140020B4030020C80B00205210002036
:103A600016130020D20B00209C070020B610002067
:103A700018130020F4030020150400201413002064
:103A8000F40B0020480600204E10002010B5074916
:103A90005822074800F07AF9064C0749201C3822C2
:103AA00000F074F9A27B054B1A6010BD404C000079
:103AB000521000203A0C0020084C0000681400202E
:103AC00008B50449044B41430448C91800F0FCF808
:103AD000C0B208BD44FEFFFFFE24020040420F00BA
:103AE00070B5234C0023E3700225224B2571E5714C
:103AF0009E78042E07D1B020A070FFF7E1FF0623C7
:103B000020706371A5711C4B1B78AA2B2AD11B4B0B
:103B10001B4A1B78127858B251B2401819490978DB
:103B200049B240181849097849B288421AD1022E80
:103B300005D0043E724256417642334000E0131CE9
:103B40000B4A0C4994784831097858B2201840182B
:103B5000FF2803DDC943C9B2917003E09178CB1807
:103B6000DBB29370024CA078FFF7AAFF207070BD03
:103B7000280D002052100020A000E000A100E0006D
:103B8000A200E000A300E000A400E00038B5124C61
:103B9000124D2378FA209A00D3189B10DBB22B80A9
:103BA0002378800058430E4B9988C90000F08CF8A8
:103BB000C1B26980237823205843C90000F084F8FB
:103BC000084B02221A70084BE4221A80074BC0B23D
:103BD0003F22A8801A6038BD280D0020380600203A
:103BE00052100020F40B0020D00B0020CC0B002042
:103BF000704710B51C1C029B88420ADB904207DA12
:103C00001B1B401A5843511A00F05EF8241800E0BC
:103C10001C1C201C10BDC04602B471464908490056
:103C2000095C49008E4402BC7047C046002934D06C
:103C30000123002210B488422CD301242407A1427E
:103C400004D2814202D209011B01F8E7E400A1423B
:103C500004D2814202D249005B00F8E7884201D3D6
:103C6000401A1A434C08A04202D3001B5C082243AE
:103C70008C08A04202D3001B9C082243CC08A0421F
:103C800002D3001BDC082243002803D01B0901D00B
:103C90000909E3E7101C10BC7047002801D0002080
:103CA000C04307B4024802A14018029003BDC046B9
:103CB000D90000000029F0D003B5FFF7B9FF0EBC12
:103CC0004243891A1847C046002941D010B4041C49
:103CD0004C40A44601230022002900D54942002877
:103CE00000D5404288422CD301242407A14204D2AB
:103CF000814202D209011B01F8E7E400A14204D28B
:103D0000814202D249005B00F8E7884201D3401AA1
:103D10001A434C08A04202D3001B5C0822438C08C3
:103D2000A04202D3001B9C082243CC08A04202D32D
:103D3000001BDC082243002803D01B0901D009091D
:103D4000E3E7101C6446002C00D5404210BC7047CD
:103D5000002806D003DB0020C043400801E080209B
:103D6000000607B4024802A14018029003BDC046F5
:103D7000190000000029EBD003B5FFF7A7FF0EBC28
:103D80004243891A1847C0467047C046F0B5051C23
:103D90000F2A2FD90B1C0343051C9C072CD10C1C8C
:103DA000031C151C2668103D1E6066685E60A668D0
:103DB0009E60E6681034DE6010330F2DF2D8131CBD
:103DC000103B1B0901331B01C518C9180F231A40EA
:103DD000032A0FD90E1C2C1C131C80CE043B80C45C
:103DE000032BFAD8131F9B0801339B0003242240A6
:103DF000C918ED18002A05D00023CC5CEC5401331F
:103E00009342FAD1F0BDC04670B5830742D0002A74
:103E10003FD0013ACEB2031C032503E0541E002A12
:103E200037D0221C1E7001332B42F7D1032A28D928
:103E3000FF250D402C0225432C0425430F2A13D9BE
:103E40001C1C161C103E25606560A560E5601034E2
:103E50000F2EF7D8141C103C2409013424011B191F
:103E60000F242240032A0CD91E1C141C043C20C61B
:103E7000032CFBD8141FA4080134A40003252A40F6
:103E80001B19002A05D0C9B2013A19700133002A62
:103E9000FAD170BD031CC9E770B5114B114A1C68FB
:103EA00011688C4218D01B6816680F4ADBB215687F
:103EB000F6B206240F210130221C5A43AA181278A8
:103EC0000A40824209D05A1CD2B21D3BDBB21D2AE5
:103ED00000D8131CB342EFD1044B18B270BDC046DA
:103EE00074000020700000202C000020FFFF000064
:103EF00000B5074A074B10681968884202DB106852
:103F00001B6802E010681B681E30C01A00BDC04666
:103F10007000002074000020000102030404050664
:103F20000708090A0B0B0C0D0E0F101111121314B8
:103F3000151516171818191A1B1B1C1D1D1E1F1FDF
:103F40002021212223232424252526272728282928
:103F5000292A2A2B2B2C2C2DFF00000100FF010009
:103F60000000000000000000000000000000000051
:103F70000000000000000000000000000000000041
:103F80000000000000000000FF000000720C002094
:103F900001FF02010104000444000C060403410077
:103FA00001000000FFFFFFFFFFFFFFFFFFFFFFFF1C
:103FB000FFFFFFFFFFFFFFFFFFFFFFFFFFFFFFFF11
:103FC000FFFFFFFFFFFFFFFFFFFFFFFFFFFFFFFF01
:103FD000FFFFFFFFFFFFFFFFFFFFFFFFFFFFFFFFF1
:103FE000FFFFFFFFFFFFFFFFFFFFFFFFFFFFFFFFE1
:103FF000FFFFFFFFFFFFFFFFFFFFFFFFFFFFFFFFD1
:10400000FFFFFFFFFFFFFFFFFFFFFFFFFFFFFF447B
:104010004D3148305052343400B5002802D00128C8
:1040200015D102E00A4A0B4B10E00B4A0B4B1A6009
:104030000B4A0C4B1A600C4A0C4B1A600C4A0D4B85
:104040001A600D4A0D4B1A600D4A0E4B1A6000BDE6
:10405000DD40000030060020CD4200006800002056
:1040600001460000640000205146000018000020B6
:10407000394A0000140000200D4300001000002009
:10408000794000000C00002008B5124B1B88DBB201
:10409000AF2B1BD0B22B19D0102B19D1FEF701FD7D
:1040A0000D4A002313600D4A11680D4A12689142AF
:1040B00002D108E0C04600E00A4B013B002BF9D1D9
:1040C000FEF7E8FC04E0084A136001E0FEF7E9FCB3
:1040D00008BDC0461C000020200000207400002005
:1040E00070000020E9030000AC100020F7B5013893
:1040F000132800D9BEE0FFF78FFD0A12BD1ABDBD1F
:104100002554BDBD90BDBDBDBDBDBD95A4B85A4B28
:104110001A785A4B1A705A4B9A785A4B8FE0FA20F9
:10412000C000FEF763FD584B00229A61A2E0574998
:1041300000230A689A4202DD4B68D318DB0F544A09
:10414000137097E0534B1B78002B10D04F4A0E236F
:10415000D15E4D4B132908DC9168282905DD928931
:104160004F2A02D85A68013200E000225A604A4BB6
:104170001B78002B00D07DE0484B1A68484B192A69
:1041800003DC484A1278002A01D0474A00E0474A37
:10419000101C3D30191C0078D28D3D310870DA8535
:1041A00068E0434B1B78002B64D03B4B1B78002B03
:1041B00060D13C4B1B7801933E4B1D68002D00DC09
:1041C00001250C243C4E25E01A0112195200925B85
:1041D000013B8018384F002BF6D10199002901D0FE
:1041E000132103E01321FFF76FFD291CFFF76CFD7E
:1041F00013231A0112195200B95A091A002901DDB4
:1042000089B200E00021013B9153002BF1D1013C28
:10421000002C2FD013230020D6E7284B02201B6848
:10422000984727E0184B5A682D2A23DD1D4A12783B
:10423000002A1FD15A60FDF7DDFF214B10221A70B2
:1042400018E0174B04229A70872252009A8020228D
:104250009A710522DA7101221A721E225A72002204
:104260001A70184B9A785A7004E00D480F4958227A
:10427000FFF78CFDF7BDC046FF4B00002C06002069
:104280003A0C00202D060020AC0B0020B4030020C7
:1042900017130020C80B00201A0400201013002060
:1042A0005210002015040020984C0000404C0000E3
:1042B000860700202C010020000800406400002038
:1042C0008C070020280D0020024B1A68024B1A6050
:1042D0007047C046700000207400002008B5FFF74A
:1042E000F3FF08BD10B50A4C06222168094B514363
:1042F0001B6809485918FFF749FD236801332360FB
:1043000023681D2B02DD23681E3B236010BDC046C1
:10431000740000202C000020B0100020F7B59A4A4D
:1043200013881BB2102B00D17BE024DC072B00D1BB
:10433000F2E00EDC032B00D19AE003DC022B00D06C
:1043400020E189E0042B00D19BE0052B00D019E18E
:104350007DE00C2B00D1A2E006DC082B00D1E6E0CA
:104360000B2B00D00EE194E00D2B00D19EE00F2B23
:1043700000D007E12FE0B22B28D011DCAE2B00D10A
:10438000ECE006DC1F2B00D1C3E06B2B00D0F9E082
:10439000DBE0AF2B00D1E8E0B12B00D0F2E011E080
:1043A000C22B00D199E006DCC02B00D187E0C12BE5
:1043B00000D0E7E089E0E32B00D195E0F62B00D0B8
:1043C000E0E094E0714A1178714A1170714A1178F5
:1043D000B222D31ABFE0FFF78BFD6F4C2060236839
:1043E000002B01D1FEF75DFB236806225A43684B80
:1043F0006A4C1A700025684E0FE0FFF773FF68469D
:1044000067490622FFF7C2FC002369465A5CE25462
:104410000133062BF9D10135063433689D42ECDBBC
:10442000B0E060495C4A0C681368062058430023DA
:1044300084420ADA594A0868554D1018C45C581964
:1044400001330470082BF6D19CE013609AE0564BC0
:10445000DA8D4F4B1A7095E0544A0F231A27D15F1B
:10446000527F091152B299431340494ACB18137035
:10447000454B1A88032312B29A1A4C4B998B444B22
:10448000D154414B1A88042312B29A1A474B598BC4
:1044900013E01288132112B29B1A3D4A99543A4BE9
:1044A0003B4A19880C2309B2591A8B54364B1A8887
:1044B0003F4B12B219780D239A1A354B4CE01288F3
:1044C0004D2112B29B1A324A99542F4B45211A881A
:1044D000C12312B29A1A2E4BD1542B4B47211A8862
:1044E000C22312B29A1AE8E71288304930E02D4C04
:1044F0002E480021158826682DB2861976185D1B76
:10450000234F4D19F678ED1901312E700A29F1D19A
:1045100038E0128827491BE0128812B29B1A264AFB
:10452000128811B2C943C9170A4019495A54164B87
:104530001988082309B2591A1F4B5B881AB2D24353
:10454000D2171340124A8B541CE01749128832319B
:1045500012B209789B1A0E4A995413E0174B1A7835
:104560000B4B1A70FEF79DFA0CE015490D4A00231B
:104570000C681068064D2018C45C5819013304708B
:10458000082BF5D1F7BDC0461C0000201704002001
:104590001000005016040020AC100020780000200D
:1045A000B010002020000020521000203A0C002003
:1045B000F40B00203E0000204E1000209B0700203E
:1045C000340E002073B50F4C0F4D00900191206800
:1045D0001E211F302E68FFF7CDFBB142F7D02068B7
:1045E00006225043094B69461B681818FFF7CEFB9B
:1045F00023680133236023681D2B02DD23681E3BE3
:10460000236073BD70000020740000202C00002087
:1046100007B5012802D002280BD101E00F2300E0EA
:104620000E236A461370002353709370D370137176
:10463000537100980199FFF7C5FFFEF72BFA07BDEC
:1046400007B506235A43019104490090086869465A
:1046500080181A1CFFF79AFB07BDC0462C000020EB
:10466000F0B5954B8BB01A78002A04D1934B19788A
:10467000002900D01A7000270120914E01903C1CA7
:1046800090497D180422AB5E069318202B5E06A885
:104690000793FEF753F80021735E002B66DD8A4B0B
:1046A000A200D3185A68DB6B04A804920593FEF7A6
:1046B00045F8069B05980293079B049AC31A00923B
:1046C000DA179918814B51401B780391012B0DD1BA
:1046D000C8235B00984209DD91386523FF385843B1
:1046E0006421FFF7F1FA9130FF300590784B039881
:1046F0003C331B78984207DA009902980A1AD117BE
:1047000052184A409A4203DB724B1B5D002B03D1C7
:104710002C22AB5E002B62DC01996022524208AB76
:104720000A431A70049A0F211512059A0D401211AE
:104730008A43154369461022515C6A4699701421D8
:104740008A5CF188DA70E0B25D70FF22FE2900D841
:10475000CAB21A71328811B2FF2900DDFF225A71E4
:10476000FFF79AFB0999021C089831E02C202B5E78
:10477000002B34DD0199202208AB0A431A70069AF7
:104780000F211512079A0D4012118A4315436946ED
:104790001822515C6A4699701C218A5CE0B2DA707A
:1047A000454A5D701278002A08D0444A11780029E1
:1047B00004D10E2119710123137001E000221A7136
:1047C00008AD00236B71FFF767FB6968021C08984E
:1047D000531C02D1FFF7F6FE01E0FFF731FF01980D
:1047E000023701300134019008360A2F00D047E724
:1047F000394B5A68394B5B68511C38D09A4250D0BB
:104800005A1C17D04022013308AC134323700023F5
:104810006370A370E370237163710520FFF73CFBA5
:10482000021C61680898531C02D1FFF7CBFE01E01F
:10483000FFF706FF284A402351685B42481C08AC3A
:1048400003432370043100236370A370E37023716A
:104850004900535A05206371FFF71EFB021C501CD0
:1048600002D10898616817E00898616817E0591C40
:1048700017D04022013308AC134323700023637028
:10488000A370E370237163710520FFF705FB021C21
:1048900061680898531C02D1FFF794FE01E0FFF70E
:1048A000CFFE0F4B1A680F4B1B689A4201D0FEF7E0
:1048B000F1F80BB0F0BDC0461504002060000020E8
:1048C0000C0300202C010020980200201A04002074
:1048D000521000208C020020E8000020D0000020B0
:1048E000740000207000002070B5051C0E1C141C04
:1048F000502805D1474B01201860FFF78DFB88E059
:10490000402806D1444B00221A73444B01221A70EE
:104910000CE04D280AD1424B26221A7028224A4325
:10492000404BD218404B1A60FEF7B4F83B4B1A7854
:10493000002A6ED0281C41380E286AD8FFF76CF97F
:104940000810081F08306969693E475669696700A1
:10495000334B01221A70354B1A80334A136053E0EF
:104960002F4BFF2C03D126221A70002401E00222D3
:104970001A7014235E43A41964002D4B0DE0284BDC
:10498000FF2C03D126221A70002401E002221A70A3
:1049900014235E43234BA4196400E418224B32E035
:1049A0001F4BFF2C03D126221A70002401E00222A3
:1049B0001A7014235E431F4BA419EEE718491A4BD3
:1049C0001D4AFF2C08D00220087064000CE0144936
:1049D000154B1A4AFF2C04D1194800784000C0B288
:1049E0000BE0022008708440121907E00C490E4BBE
:1049F000144AFF2C04D11248007808701A6003E0B2
:104A00000120087014191C60FEF744F801E0002230
:104A10001A7070BD68140020521000201E0400207F
:104A20009B070020B6100020340E002080070020D5
:104A30003C0E0020300D00204E10002048060020C3
:104A4000F40B0020260D002008B5434B1B88302BAB
:104A500000D17BE006D80E2B38D01E2B6DD00A2B50
:104A600078D127E0A02B04D0B02B49D05F2B71D197
:104A700008E03A4B18783A4B19783A4B1A78FFF716
:104A800033FF67E0A023DB051968374A0A4080211D
:104A9000C9010A431A601968344A0A408021C900D2
:104AA0000A431A601968324A0A409021C9050A432C
:104AB0001A604FE02F4A012313702F4A1E211370F2
:104AC0002E4B04221A771A1C3D320AE0294A012390
:104AD0001370294A0A211370284B05221A771A1CD1
:104AE0003D3211701422DA863A3303221A70244AB6
:104AF0004023111DCB77511D0632CB77D37729E0A8
:104B0000164B1B78002B25D08023DB0599681D4AA6
:104B10000A409A6099681C4A0A409A6099681B4A40
:104B20000A409A605968802212010A435A60C046BE
:104B3000C046C046C04662B60CE0084B1A78144B1B
:104B4000002A01D0002204E0012202E0034B1A787F
:104B5000104B1A7008BDC0461C0000200C0000500D
:104B60000E0000500D000050FF0FFFFFFFF8FFFF89
:104B7000FFFFFF80180400201A04002052100020BC
:104B80003A0C0020FFFDFFFFFFFBFFFFFFF7FFFFD9
:104B90003300002032000020FFFFFFFFFFFFFFFF78
:104BA000FFFFFFFFFFFFFFFFFFFFFFFFFFFFFFFF15
:104BB000FFFFFFFFFFFFFFFFFFFFFFFFFFFFFFFF05
:104BC000FFFFFFFFFFFFFFFFFFFFFFFFFFFFFFFFF5
:104BD000FFFFFFFFFFFFFFFFFFFFFFFFFFFFFFFFE5
:104BE000FFFFFFFFFFFFFFFFFFFFFFFFFFFFFFFFD5
:104BF000FFFFFFFFFFFFFFFFFFFFFFFFFFFFFFFFC5
:104C0000FFFFFFFFFFFFFFFFFFFFFFFFFFFFFF01B2
:104C10004D314830504234343446344B594C455F62
:104C20004731460000480C3C1E14010101010005FB
:104C300000002003E001000000020232322B0101DB
:104C4000280032005E012C011400110732321000DE
:104C500001010400F4012204051E0000020F0F00F0
:104C600002070500D4FE0A140AF60BCE0800E8027B
:104C70008A0226025E0130006414920300002300C1
:104C80001400120E3C0161021E000101010C3C00E7
:104C900028003200010101070A0032000A03F6076A
:104CA0002101FF7F0080140001010400F4012204AF
:104CB00005190000020F0F00020707009CFF141ED9
:104CC0000AF60A9C0C00C2019001FA00A00018002C
:104CD00064140000000032001E00231E3C01C304C7
:104CE0003C0003010114FFFFFFFFFFFF010101076B
:104CF0000A0050000A05FF7F0080FF7F008023002C
:104D000009080706050403020100141312110F0B12
:104D10000C0D0E0A00000001020304050607080935
:104D20000A0B02090013130209FEFDFDFDFDFCFC48
:104D3000FCFCFCFBFBFBFBFBFBFBFBFBFE0000FEB0
:104D4000FDFDFDFDFCFCFCFCFCFBFBFBFBFBFBFBA6
:104D5000FBFBFD0000FEFDFDFDFDFDFCFCFCFCFB86
:104D6000FBFBFBFBFBFBFBFBFB0000FEFDFDFDFD7E
:104D7000FCFCFCFCFCFBFBFBFBFBFBFBFBFBFC0078
:104D800000FEFDFDFDFDFCFCFCFCFCFBFBFBFBFB5E
:104D9000FBFBFBFBFB0000FEFDFDFDFDFCFCFCFC4A
:104DA000FCFBFBFBFBFBFBFBFBFBFB0000FEFDFD41
:104DB000FDFDFCFCFCFCFCFBFBFBFBFBFBFBFBFB3A
:104DC000FB0000FEFDFDFDFDFCFCFCFCFBFBFBFB1A
:104DD000FBFBFBFBFBFBFB0000FEFDFDFDFDFCFC0C
:104DE000FCFCFBFBFBFBFBFBFBFBFBFBFC0000FE03
:104DF000FDFDFDFDFCFCFCFCFBFBFBFBFBFBFBFBF7
:104E0000FBFBFB0000FEFDFDFDFDFCFCFCFCFBFBD9
:104E1000FBFBFBFBFBFBFBFBFC0000FEFDFDFDFDCC
:104E2000FCFCFCFCFBFBFBFBFBFBFBFBFBFBFB00C9
:104E30000000000000000000000000000000000072
:104E40000000000000000000000000000000000062
:104E50000000000000000000000000000000000052
:104E60000000000000000000000000000000000042
:104E70000000002926262525252322232423232359
:104E800023232222211F002A2929292827262524F5
:104E900025252525242424232220002A29292827E2
:104EA000272625262727272625252525231F002ACF
:104EB000282927272725252425252524242323239E
:104EC0002221002A282827272625242425252524B1
:104ED000242323222221002A2828272727252425A6
:104EE000252525242423232322210029282726269B
:104EF0002625242525252424242323232222002A91
:104F00002827262625252525262624252323232351
:104F10002321002928272626262424252526242562
:104F20002423242322210029282726262625242657
:104F3000282626262525252423200029282725253F
:104F4000242324242525242423232322222000284B
:104F5000262524242423232525232222212121211F
:104F60002120000000000000000000000000000000
:104F7000000000000000003C3CFFFFFFFFFFFFFFC0
:104F8000FFFFFFFFFFFFFFFFFFFFFFFFFFFFFFFF31
:104F9000FFFFFFFFFFFFFFFFFFFFFFFFFFFFFFFF21
:104FA000FFFFFFFFFFFFFFFFFFFFFFFFFFFFFFFF11
:104FB000FFFFFFFFFFFFFFFFFFFFFFFFFFFFFFFF01
:104FC000FFFFFFFFFFFFFFFFFFFFFFFFFFFFFFFFF1
:104FD000FFFFFFFFFFFFFFFFFFFFFFFFFFFFFFFFE1
:104FE000FFFFFFFFFFFFFFFFFFFFFFFFFFFFFFFFD1
:104FF000FFFFFFFFFFFFFFFFFFFFFFFFFFFFFFFFC1
:10500000FFFFFFFFFFFFFFFFFFFFFFFFFFFFFF00AF
:00000001FF
